{
  "contractName": "meme",
  "abi": [
    {
      "inputs": [],
      "name": "id",
      "outputs": [
        {
          "internalType": "uint256",
          "name": "",
          "type": "uint256"
        }
      ],
      "stateMutability": "view",
      "type": "function",
      "constant": true
    },
    {
      "inputs": [
        {
          "internalType": "uint256",
          "name": "",
          "type": "uint256"
        }
      ],
      "name": "images",
      "outputs": [
        {
          "internalType": "string",
          "name": "hash",
          "type": "string"
        },
        {
          "internalType": "string",
          "name": "description",
          "type": "string"
        },
        {
          "internalType": "address payable",
          "name": "author",
          "type": "address"
        },
        {
          "internalType": "uint256",
          "name": "tipped",
          "type": "uint256"
        }
      ],
      "stateMutability": "view",
      "type": "function",
      "constant": true
    },
    {
      "inputs": [
        {
          "internalType": "string",
          "name": "_hash",
          "type": "string"
        },
        {
          "internalType": "string",
          "name": "_description",
          "type": "string"
        }
      ],
      "name": "upload",
      "outputs": [],
      "stateMutability": "nonpayable",
      "type": "function"
    },
    {
      "inputs": [
        {
          "internalType": "uint256",
          "name": "_id",
          "type": "uint256"
        }
      ],
      "name": "tip",
      "outputs": [],
      "stateMutability": "payable",
      "type": "function",
      "payable": true
    }
  ],
  "bytecode": "0x60806040526000805534801561001457600080fd5b50610820806100246000396000f3fe60806040526004361061003f5760003560e01c8063202e49361461004457806384856482146101a3578063af640d0f146102e7578063e8b69bc314610312575b600080fd5b34801561005057600080fd5b506101a16004803603604081101561006757600080fd5b810190808035906020019064010000000081111561008457600080fd5b82018360208201111561009657600080fd5b803590602001918460018302840111640100000000831117156100b857600080fd5b91908080601f016020809104026020016040519081016040528093929190818152602001838380828437600081840152601f19601f8201169050808301925050505050505091929192908035906020019064010000000081111561011b57600080fd5b82018360208201111561012d57600080fd5b8035906020019184600183028401116401000000008311171561014f57600080fd5b91908080601f016020809104026020016040519081016040528093929190818152602001838380828437600081840152601f19601f820116905080830192505050505050509192919290505050610340565b005b3480156101af57600080fd5b506101dc600480360360208110156101c657600080fd5b810190808035906020019092919050505061051d565b6040518080602001806020018573ffffffffffffffffffffffffffffffffffffffff168152602001848152602001838103835287818151815260200191508051906020019080838360005b83811015610242578082015181840152602081019050610227565b50505050905090810190601f16801561026f5780820380516001836020036101000a031916815260200191505b50838103825286818151815260200191508051906020019080838360005b838110156102a857808201518184015260208101905061028d565b50505050905090810190601f1680156102d55780820380516001836020036101000a031916815260200191505b50965050505050505060405180910390f35b3480156102f357600080fd5b506102fc61069d565b6040518082815260200191505060405180910390f35b61033e6004803603602081101561032857600080fd5b81019080803590602001909291905050506106a3565b005b60008151116103b7576040517f08c379a00000000000000000000000000000000000000000000000000000000081526004018080602001828103825260198152602001807f63616e7420626520656d707479206465736372697074696f6e0000000000000081525060200191505060405180910390fd5b3373ffffffffffffffffffffffffffffffffffffffff16600073ffffffffffffffffffffffffffffffffffffffff16141561045a576040517f08c379a00000000000000000000000000000000000000000000000000000000081526004018080602001828103825260158152602001807f6e65656420746f206861766520616464726573732e000000000000000000000081525060200191505060405180910390fd5b816001600080548152602001908152602001600020600001908051906020019061048592919061074d565b5080600160008054815260200190815260200160002060010190805190602001906104b192919061074d565b5033600160008054815260200190815260200160002060020160006101000a81548173ffffffffffffffffffffffffffffffffffffffff021916908373ffffffffffffffffffffffffffffffffffffffff16021790555060008081548092919060010191905055505050565b6001602052806000526040600020600091509050806000018054600181600116156101000203166002900480601f0160208091040260200160405190810160405280929190818152602001828054600181600116156101000203166002900480156105c95780601f1061059e576101008083540402835291602001916105c9565b820191906000526020600020905b8154815290600101906020018083116105ac57829003601f168201915b505050505090806001018054600181600116156101000203166002900480601f0160208091040260200160405190810160405280929190818152602001828054600181600116156101000203166002900480156106675780601f1061063c57610100808354040283529160200191610667565b820191906000526020600020905b81548152906001019060200180831161064a57829003601f168201915b5050505050908060020160009054906101000a900473ffffffffffffffffffffffffffffffffffffffff16908060030154905084565b60005481565b60006001600083815260200190815260200160002060020160009054906101000a900473ffffffffffffffffffffffffffffffffffffffff1690508073ffffffffffffffffffffffffffffffffffffffff166108fc349081150290604051600060405180830381858888f19350505050158015610724573d6000803e3d6000fd5b503460016000848152602001908152602001600020600301600082825401925050819055505050565b828054600181600116156101000203166002900490600052602060002090601f016020900481019282601f1061078e57805160ff19168380011785556107bc565b828001600101855582156107bc579182015b828111156107bb5782518255916020019190600101906107a0565b5b5090506107c991906107cd565b5090565b5b808211156107e65760008160009055506001016107ce565b509056fea26469706673582212201307daac6eb5f0e0b52d98ec5ac71b8abc9b7a0136b614e8910fd7115ae8271b64736f6c634300060c0033",
  "immutableReferences": {},
  "source": "// SPDX-License-Identifier: MIT\npragma solidity  ^0.6.0;\n\ncontract meme {\n \nuint public id=0;\n mapping (uint=> Img) public images;\n struct Img{\n\n  string hash;\n  string description;\n  address payable author;\n  uint tipped;\n }\n\n  function upload(string memory _hash,string memory _description) public {\n\n    require(bytes(_description).length>0,\"cant be empty description\");\n    require(address(0)!=msg.sender,\"need to have address.\");\n    images[id].hash=_hash;\n    images[id].description=_description;\n    images[id].author=msg.sender;\n \nid++;\n  }\n\n  function tip(uint _id ) public  payable {\n   address payable _author=images[_id].author;\n   _author.transfer(msg.value);\n   images[_id].tipped+=msg.value;\n\n }\n}\n",
  "sourcePath": "/Users/namantripathi/Desktop/ipfs/contracts/meme.sol",
  "compiler": {
    "name": "solc",
    "version": "0.6.12+commit.27d51765.Emscripten.clang"
  },
  "schemaVersion": "3.4.3",
  "updatedAt": "2022-03-15T20:11:33.328Z",
  "networkType": "ethereum",
  "devdoc": {
    "kind": "dev",
    "methods": {},
    "version": 1
  },
  "userdoc": {
    "kind": "user",
    "methods": {},
    "version": 1
  }
}