{
  "contractName": "nft",
  "abi": [
    {
      "inputs": [],
      "name": "amount",
      "outputs": [
        {
          "internalType": "uint256",
          "name": "",
          "type": "uint256"
        }
      ],
      "stateMutability": "view",
      "type": "function",
      "constant": true
    },
    {
      "inputs": [
        {
          "internalType": "address",
          "name": "owner",
          "type": "address"
        }
      ],
      "name": "balanceOf",
      "outputs": [
        {
          "internalType": "uint256",
          "name": "",
          "type": "uint256"
        }
      ],
      "stateMutability": "view",
      "type": "function",
      "constant": true
    },
    {
      "inputs": [],
      "name": "id",
      "outputs": [
        {
          "internalType": "uint256",
          "name": "",
          "type": "uint256"
        }
      ],
      "stateMutability": "view",
      "type": "function",
      "constant": true
    },
    {
      "inputs": [
        {
          "internalType": "address",
          "name": "owner",
          "type": "address"
        },
        {
          "internalType": "address",
          "name": "operator",
          "type": "address"
        }
      ],
      "name": "isApprovedForAll",
      "outputs": [
        {
          "internalType": "bool",
          "name": "",
          "type": "bool"
        }
      ],
      "stateMutability": "view",
      "type": "function",
      "constant": true
    },
    {
      "inputs": [],
      "name": "name",
      "outputs": [
        {
          "internalType": "string",
          "name": "",
          "type": "string"
        }
      ],
      "stateMutability": "view",
      "type": "function",
      "constant": true
    },
    {
      "inputs": [
        {
          "internalType": "uint256",
          "name": "",
          "type": "uint256"
        }
      ],
      "name": "own",
      "outputs": [
        {
          "internalType": "address",
          "name": "holder",
          "type": "address"
        },
        {
          "internalType": "string",
          "name": "hash",
          "type": "string"
        }
      ],
      "stateMutability": "view",
      "type": "function",
      "constant": true
    },
    {
      "inputs": [
        {
          "internalType": "uint256",
          "name": "tokenId",
          "type": "uint256"
        }
      ],
      "name": "ownerOf",
      "outputs": [
        {
          "internalType": "address",
          "name": "",
          "type": "address"
        }
      ],
      "stateMutability": "view",
      "type": "function",
      "constant": true
    },
    {
      "inputs": [],
      "name": "symbol",
      "outputs": [
        {
          "internalType": "string",
          "name": "",
          "type": "string"
        }
      ],
      "stateMutability": "view",
      "type": "function",
      "constant": true
    },
    {
      "inputs": [
        {
          "internalType": "string",
          "name": "_hash",
          "type": "string"
        },
        {
          "internalType": "uint256",
          "name": "_id",
          "type": "uint256"
        }
      ],
      "name": "hashe",
      "outputs": [],
      "stateMutability": "nonpayable",
      "type": "function"
    },
    {
      "inputs": [
        {
          "internalType": "uint256",
          "name": "_id",
          "type": "uint256"
        }
      ],
      "name": "pay",
      "outputs": [],
      "stateMutability": "payable",
      "type": "function",
      "payable": true
    },
    {
      "inputs": [
        {
          "internalType": "uint256",
          "name": "_i",
          "type": "uint256"
        }
      ],
      "name": "Giveowner",
      "outputs": [
        {
          "internalType": "address",
          "name": "",
          "type": "address"
        }
      ],
      "stateMutability": "view",
      "type": "function",
      "constant": true
    },
    {
      "inputs": [
        {
          "internalType": "uint256",
          "name": "_i",
          "type": "uint256"
        }
      ],
      "name": "givehash",
      "outputs": [
        {
          "internalType": "string",
          "name": "",
          "type": "string"
        }
      ],
      "stateMutability": "view",
      "type": "function",
      "constant": true
    }
  ],
  "bytecode": "0x608060405260006007553480156200001657600080fd5b506040518060400160405280600381526020017f6e667400000000000000000000000000000000000000000000000000000000008152506040518060400160405280600481526020017f6472676e0000000000000000000000000000000000000000000000000000000081525081600090805190602001906200009b929190620000bd565b508060019080519060200190620000b4929190620000bd565b505050620001d2565b828054620000cb906200019c565b90600052602060002090601f016020900481019282620000ef57600085556200013b565b82601f106200010a57805160ff19168380011785556200013b565b828001600101855582156200013b579182015b828111156200013a5782518255916020019190600101906200011d565b5b5090506200014a91906200014e565b5090565b5b80821115620001695760008160009055506001016200014f565b5090565b7f4e487b7100000000000000000000000000000000000000000000000000000000600052602260045260246000fd5b60006002820490506001821680620001b557607f821691505b60208210811415620001cc57620001cb6200016d565b5b50919050565b611b6480620001e26000396000f3fe6080604052600436106100a75760003560e01c806395d89b411161006457806395d89b41146101f4578063a912c4361461021f578063aa8c217c1461025d578063af640d0f14610288578063c290d691146102b3578063e985e9c5146102cf576100a7565b806306fdde03146100ac578063138eac02146100d75780636352211e14610114578063673c89591461015157806370a082311461017a5780637cadaabe146101b7575b600080fd5b3480156100b857600080fd5b506100c161030c565b6040516100ce91906111b3565b60405180910390f35b3480156100e357600080fd5b506100fe60048036038101906100f9919061121f565b61039e565b60405161010b91906111b3565b60405180910390f35b34801561012057600080fd5b5061013b6004803603810190610136919061121f565b610446565b604051610148919061128d565b60405180910390f35b34801561015d57600080fd5b50610178600480360381019061017391906113dd565b6104f8565b005b34801561018657600080fd5b506101a1600480360381019061019c9190611465565b6105d8565b6040516101ae91906114a1565b60405180910390f35b3480156101c357600080fd5b506101de60048036038101906101d9919061121f565b610690565b6040516101eb919061128d565b60405180910390f35b34801561020057600080fd5b506102096106d0565b60405161021691906111b3565b60405180910390f35b34801561022b57600080fd5b506102466004803603810190610241919061121f565b610762565b6040516102549291906114bc565b60405180910390f35b34801561026957600080fd5b5061027261082e565b60405161027f91906114a1565b60405180910390f35b34801561029457600080fd5b5061029d610834565b6040516102aa91906114a1565b60405180910390f35b6102cd60048036038101906102c8919061121f565b61083a565b005b3480156102db57600080fd5b506102f660048036038101906102f191906114ec565b610b8d565b6040516103039190611547565b60405180910390f35b60606000805461031b90611591565b80601f016020809104026020016040519081016040528092919081815260200182805461034790611591565b80156103945780601f1061036957610100808354040283529160200191610394565b820191906000526020600020905b81548152906001019060200180831161037757829003601f168201915b5050505050905090565b60606008600083815260200190815260200160002060010180546103c190611591565b80601f01602080910402602001604051908101604052809291908181526020018280546103ed90611591565b801561043a5780601f1061040f5761010080835404028352916020019161043a565b820191906000526020600020905b81548152906001019060200180831161041d57829003601f168201915b50505050509050919050565b6000806002600084815260200190815260200160002060009054906101000a900473ffffffffffffffffffffffffffffffffffffffff169050600073ffffffffffffffffffffffffffffffffffffffff168173ffffffffffffffffffffffffffffffffffffffff1614156104ef576040517f08c379a00000000000000000000000000000000000000000000000000000000081526004016104e690611635565b60405180910390fd5b80915050919050565b81600860008381526020019081526020016000206001019080519060200190610522929190611077565b5061052d3382610c21565b336009600083815260200190815260200160002060006101000a81548173ffffffffffffffffffffffffffffffffffffffff021916908373ffffffffffffffffffffffffffffffffffffffff160217905550336008600083815260200190815260200160002060000160006101000a81548173ffffffffffffffffffffffffffffffffffffffff021916908373ffffffffffffffffffffffffffffffffffffffff1602179055505050565b60008073ffffffffffffffffffffffffffffffffffffffff168273ffffffffffffffffffffffffffffffffffffffff161415610649576040517f08c379a0000000000000000000000000000000000000000000000000000000008152600401610640906116c7565b60405180910390fd5b600360008373ffffffffffffffffffffffffffffffffffffffff1673ffffffffffffffffffffffffffffffffffffffff168152602001908152602001600020549050919050565b60006008600083815260200190815260200160002060000160009054906101000a900473ffffffffffffffffffffffffffffffffffffffff169050919050565b6060600180546106df90611591565b80601f016020809104026020016040519081016040528092919081815260200182805461070b90611591565b80156107585780601f1061072d57610100808354040283529160200191610758565b820191906000526020600020905b81548152906001019060200180831161073b57829003601f168201915b5050505050905090565b60086020528060005260406000206000915090508060000160009054906101000a900473ffffffffffffffffffffffffffffffffffffffff16908060010180546107ab90611591565b80601f01602080910402602001604051908101604052809291908181526020018280546107d790611591565b80156108245780601f106107f957610100808354040283529160200191610824565b820191906000526020600020905b81548152906001019060200180831161080757829003601f168201915b5050505050905082565b60075481565b60065481565b670de0b6b3a7640000341015610885576040517f08c379a000000000000000000000000000000000000000000000000000000000815260040161087c90611733565b60405180910390fd5b6008600082815260200190815260200160002060000160009054906101000a900473ffffffffffffffffffffffffffffffffffffffff1673ffffffffffffffffffffffffffffffffffffffff166009600083815260200190815260200160002060009054906101000a900473ffffffffffffffffffffffffffffffffffffffff1673ffffffffffffffffffffffffffffffffffffffff16146109bd57606447600a6109309190611782565b61093a919061180b565b6007819055506009600082815260200190815260200160002060009054906101000a900473ffffffffffffffffffffffffffffffffffffffff1673ffffffffffffffffffffffffffffffffffffffff166108fc6007549081150290604051600060405180830381858888f193505050501580156109bb573d6000803e3d6000fd5b505b6008600082815260200190815260200160002060000160009054906101000a900473ffffffffffffffffffffffffffffffffffffffff1673ffffffffffffffffffffffffffffffffffffffff166108fc60075447610a1b919061183c565b9081150290604051600060405180830381858888f19350505050158015610a46573d6000803e3d6000fd5b50610a886008600083815260200190815260200160002060000160009054906101000a900473ffffffffffffffffffffffffffffffffffffffff163383610d9f565b6008600082815260200190815260200160002060000160009054906101000a900473ffffffffffffffffffffffffffffffffffffffff1673ffffffffffffffffffffffffffffffffffffffff16610ade82610446565b73ffffffffffffffffffffffffffffffffffffffff161415610b35576040517f08c379a0000000000000000000000000000000000000000000000000000000008152600401610b2c906118bc565b60405180910390fd5b336008600083815260200190815260200160002060000160006101000a81548173ffffffffffffffffffffffffffffffffffffffff021916908373ffffffffffffffffffffffffffffffffffffffff16021790555050565b6000600560008473ffffffffffffffffffffffffffffffffffffffff1673ffffffffffffffffffffffffffffffffffffffff16815260200190815260200160002060008373ffffffffffffffffffffffffffffffffffffffff1673ffffffffffffffffffffffffffffffffffffffff16815260200190815260200160002060009054906101000a900460ff16905092915050565b600073ffffffffffffffffffffffffffffffffffffffff168273ffffffffffffffffffffffffffffffffffffffff161415610c91576040517f08c379a0000000000000000000000000000000000000000000000000000000008152600401610c8890611928565b60405180910390fd5b610c9a81610fab565b15610cda576040517f08c379a0000000000000000000000000000000000000000000000000000000008152600401610cd190611994565b60405180910390fd5b610ce660008383611017565b6001600360008473ffffffffffffffffffffffffffffffffffffffff1673ffffffffffffffffffffffffffffffffffffffff1681526020019081526020016000206000828254610d3691906119b4565b92505081905550816002600083815260200190815260200160002060006101000a81548173ffffffffffffffffffffffffffffffffffffffff021916908373ffffffffffffffffffffffffffffffffffffffff160217905550610d9b6000838361101c565b5050565b8273ffffffffffffffffffffffffffffffffffffffff16610dbf82610446565b73ffffffffffffffffffffffffffffffffffffffff1614610e15576040517f08c379a0000000000000000000000000000000000000000000000000000000008152600401610e0c90611a7c565b60405180910390fd5b600073ffffffffffffffffffffffffffffffffffffffff168273ffffffffffffffffffffffffffffffffffffffff161415610e85576040517f08c379a0000000000000000000000000000000000000000000000000000000008152600401610e7c90611b0e565b60405180910390fd5b610e90838383611017565b610e9b600082611021565b6001600360008573ffffffffffffffffffffffffffffffffffffffff1673ffffffffffffffffffffffffffffffffffffffff1681526020019081526020016000206000828254610eeb919061183c565b925050819055506001600360008473ffffffffffffffffffffffffffffffffffffffff1673ffffffffffffffffffffffffffffffffffffffff1681526020019081526020016000206000828254610f4291906119b4565b92505081905550816002600083815260200190815260200160002060006101000a81548173ffffffffffffffffffffffffffffffffffffffff021916908373ffffffffffffffffffffffffffffffffffffffff160217905550610fa683838361101c565b505050565b60008073ffffffffffffffffffffffffffffffffffffffff166002600084815260200190815260200160002060009054906101000a900473ffffffffffffffffffffffffffffffffffffffff1673ffffffffffffffffffffffffffffffffffffffff1614159050919050565b505050565b505050565b816004600083815260200190815260200160002060006101000a81548173ffffffffffffffffffffffffffffffffffffffff021916908373ffffffffffffffffffffffffffffffffffffffff1602179055505050565b82805461108390611591565b90600052602060002090601f0160209004810192826110a557600085556110ec565b82601f106110be57805160ff19168380011785556110ec565b828001600101855582156110ec579182015b828111156110eb5782518255916020019190600101906110d0565b5b5090506110f991906110fd565b5090565b5b808211156111165760008160009055506001016110fe565b5090565b600081519050919050565b600082825260208201905092915050565b60005b83811015611154578082015181840152602081019050611139565b83811115611163576000848401525b50505050565b6000601f19601f8301169050919050565b60006111858261111a565b61118f8185611125565b935061119f818560208601611136565b6111a881611169565b840191505092915050565b600060208201905081810360008301526111cd818461117a565b905092915050565b6000604051905090565b600080fd5b600080fd5b6000819050919050565b6111fc816111e9565b811461120757600080fd5b50565b600081359050611219816111f3565b92915050565b600060208284031215611235576112346111df565b5b60006112438482850161120a565b91505092915050565b600073ffffffffffffffffffffffffffffffffffffffff82169050919050565b60006112778261124c565b9050919050565b6112878161126c565b82525050565b60006020820190506112a2600083018461127e565b92915050565b600080fd5b600080fd5b7f4e487b7100000000000000000000000000000000000000000000000000000000600052604160045260246000fd5b6112ea82611169565b810181811067ffffffffffffffff82111715611309576113086112b2565b5b80604052505050565b600061131c6111d5565b905061132882826112e1565b919050565b600067ffffffffffffffff821115611348576113476112b2565b5b61135182611169565b9050602081019050919050565b82818337600083830152505050565b600061138061137b8461132d565b611312565b90508281526020810184848401111561139c5761139b6112ad565b5b6113a784828561135e565b509392505050565b600082601f8301126113c4576113c36112a8565b5b81356113d484826020860161136d565b91505092915050565b600080604083850312156113f4576113f36111df565b5b600083013567ffffffffffffffff811115611412576114116111e4565b5b61141e858286016113af565b925050602061142f8582860161120a565b9150509250929050565b6114428161126c565b811461144d57600080fd5b50565b60008135905061145f81611439565b92915050565b60006020828403121561147b5761147a6111df565b5b600061148984828501611450565b91505092915050565b61149b816111e9565b82525050565b60006020820190506114b66000830184611492565b92915050565b60006040820190506114d1600083018561127e565b81810360208301526114e3818461117a565b90509392505050565b60008060408385031215611503576115026111df565b5b600061151185828601611450565b925050602061152285828601611450565b9150509250929050565b60008115159050919050565b6115418161152c565b82525050565b600060208201905061155c6000830184611538565b92915050565b7f4e487b7100000000000000000000000000000000000000000000000000000000600052602260045260246000fd5b600060028204905060018216806115a957607f821691505b602082108114156115bd576115bc611562565b5b50919050565b7f4552433732313a206f776e657220717565727920666f72206e6f6e657869737460008201527f656e7420746f6b656e0000000000000000000000000000000000000000000000602082015250565b600061161f602983611125565b915061162a826115c3565b604082019050919050565b6000602082019050818103600083015261164e81611612565b9050919050565b7f4552433732313a2062616c616e636520717565727920666f7220746865207a6560008201527f726f206164647265737300000000000000000000000000000000000000000000602082015250565b60006116b1602a83611125565b91506116bc82611655565b604082019050919050565b600060208201905081810360008301526116e0816116a4565b9050919050565b7f4e6f742070616964000000000000000000000000000000000000000000000000600082015250565b600061171d600883611125565b9150611728826116e7565b602082019050919050565b6000602082019050818103600083015261174c81611710565b9050919050565b7f4e487b7100000000000000000000000000000000000000000000000000000000600052601160045260246000fd5b600061178d826111e9565b9150611798836111e9565b9250817fffffffffffffffffffffffffffffffffffffffffffffffffffffffffffffffff04831182151516156117d1576117d0611753565b5b828202905092915050565b7f4e487b7100000000000000000000000000000000000000000000000000000000600052601260045260246000fd5b6000611816826111e9565b9150611821836111e9565b925082611831576118306117dc565b5b828204905092915050565b6000611847826111e9565b9150611852836111e9565b92508282101561186557611864611753565b5b828203905092915050565b7f556e61626c6520746f207472616e7366657220746865206f776e657273686970600082015250565b60006118a6602083611125565b91506118b182611870565b602082019050919050565b600060208201905081810360008301526118d581611899565b9050919050565b7f4552433732313a206d696e7420746f20746865207a65726f2061646472657373600082015250565b6000611912602083611125565b915061191d826118dc565b602082019050919050565b6000602082019050818103600083015261194181611905565b9050919050565b7f4552433732313a20746f6b656e20616c7265616479206d696e74656400000000600082015250565b600061197e601c83611125565b915061198982611948565b602082019050919050565b600060208201905081810360008301526119ad81611971565b9050919050565b60006119bf826111e9565b91506119ca836111e9565b9250827fffffffffffffffffffffffffffffffffffffffffffffffffffffffffffffffff038211156119ff576119fe611753565b5b828201905092915050565b7f4552433732313a207472616e736665722066726f6d20696e636f72726563742060008201527f6f776e6572000000000000000000000000000000000000000000000000000000602082015250565b6000611a66602583611125565b9150611a7182611a0a565b604082019050919050565b60006020820190508181036000830152611a9581611a59565b9050919050565b7f4552433732313a207472616e7366657220746f20746865207a65726f2061646460008201527f7265737300000000000000000000000000000000000000000000000000000000602082015250565b6000611af8602483611125565b9150611b0382611a9c565b604082019050919050565b60006020820190508181036000830152611b2781611aeb565b905091905056fea2646970667358221220e211af7613b11f4ad7e9e54a18464b92bdeb63d816ca0a9d865c2a72172a027d64736f6c634300080c0033",
  "immutableReferences": {},
  "source": "// SPDX-License-Identifier: MIT\n\n//Compiler version patch.major.minor\npragma solidity ^0.8.0;\n\nimport \"./ERC721.sol\";\n\ncontract nft is ERC721(\"nft\",\"drgn\"){\n     //Data variable initialize\n    uint public id;\n    uint public amount=0;\n  \n    struct val{\n       address holder;\n       string hash;\n                     }\n    mapping(uint256=>val) public own;\n    mapping(uint256=>address) royal;\n    \n    \n     //Store the hash generated by IPFS and link it with the token ID.\n    \n    function hashe(string memory _hash,uint256 _id) public{\n    \n    own[_id].hash=_hash;\n    _mint(msg.sender,_id);\n    royal[_id]= msg.sender;\n    own[_id].holder=msg.sender;\n\n    }\n\n   //Allow other account to purchase the NFT with a standard price of 1 ether and transfer the ownership.\n   //Also give the royality of 10%\n    \n    function pay(uint _id) public payable{\n\n        require(msg.value>=1 ether,\"Not paid\");\n\n    \n       //Royalty\n        if(royal[_id]!=own[_id].holder){\n                \n                amount=uint((10*address(this).balance)/100);\n                payable(royal[_id]).transfer((amount));\n\n        }\n        payable(own[_id].holder).transfer((address(this).balance-amount));\n       \n       _transfer(own[_id].holder,msg.sender,_id);\n       \n       require(ownerOf(_id)!=own[_id].holder,\"Unable to transfer the ownership\");\n    \n       own[_id].holder=msg.sender;\n       \n    }\n\n       //Give the NFT Owner address.\n    \n    function Giveowner(uint256 _i) public view returns (address){\n            \n            return own[_i].holder;\n       }\n\n\n    //Give the hash of NFT.\n    \n    function givehash(uint256 _i) public view returns (string memory){\n      \n         return own[_i].hash;\n      }\n\n\n\n\n\n}",
  "sourcePath": "/Users/namantripathi/Desktop/ipfs/contracts/nft.sol",
  "compiler": {
    "name": "solc",
    "version": "0.8.12+commit.f00d7308.Emscripten.clang"
  },
  "schemaVersion": "3.4.3",
  "updatedAt": "2022-03-16T15:50:18.761Z",
  "networkType": "ethereum",
  "devdoc": {
    "kind": "dev",
    "methods": {
      "balanceOf(address)": {
        "details": "See {IERC721-balanceOf}."
      },
      "isApprovedForAll(address,address)": {
        "details": "See {IERC721-isApprovedForAll}."
      },
      "name()": {
        "details": "See {IERC721Metadata-name}."
      },
      "ownerOf(uint256)": {
        "details": "See {IERC721-ownerOf}."
      },
      "symbol()": {
        "details": "See {IERC721Metadata-symbol}."
      }
    },
    "version": 1
  },
  "userdoc": {
    "kind": "user",
    "methods": {},
    "version": 1
  }
}